:020000040000FA
:1000000098080020650100008501000087010000BC
:1000100000000000000000000000000000000000E0
:100020000000000000000000000000008901000046
:1000300000000000000000008B0100008D010000A6
:100040008F0100008F0100008F0100008F01000070
:100050008F0100008F0100008F0100008F01000060
:100060008F0100008F0100008F0100008F01000050
:100070008F0100008F0100008F0100008F01000040
:100080008F0100008F0100008F0100008F01000030
:100090008F0100008F0100008F0100008F01000020
:1000A0008F0100008F0100008F0100008F01000010
:1000B0008F0100008F0100008F0100008F01000000
:1000C00000F002F800F03EF80CA030C80838241800
:1000D0002D18A246671EAB4654465D46AC4201D180
:1000E00000F030F87E460F3E0FCCB6460126334274
:1000F00000D0FB1AA246AB4633431847E409000080
:10010000040A0000103A02D378C878C1FAD852071E
:1001100001D330C830C101D504680C6070470000BD
:100120000023002400250026103A01D378C1FBD813
:10013000520700D330C100D50B6070471FB51FBDFB
:1001400010B510BD00F0F2F81146FFF7F7FF00F010
:100150006DFC00F00AF903B4FFF7F2FF03BC00F0F6
:1001600011F900000D480E4901600E4901600E4969
:1001700001600E4A0E491160002101600D48804760
:100180000D480047FEE7FEE7FEE7FEE7FEE7FEE775
:100190000A480B490B4A0C4B704700000001005005
:1001A00059000000160000008800000024000050E4
:1001B000A55A0000290A0000C10000009800002094
:1001C00098080020980400209804002000220309C9
:1001D0008B422CD3030A8B4211D300239C464EE062
:1001E00003460B433CD4002243088B4231D303091E
:1001F0008B421CD3030A8B4201D394463FE0C309D0
:100200008B4201D3CB01C01A524183098B4201D3E7
:100210008B01C01A524143098B4201D34B01C01AD2
:10022000524103098B4201D30B01C01A5241C3084A
:100230008B4201D3CB00C01A524183088B4201D3B9
:100240008B00C01A524143088B4201D34B00C01AA5
:100250005241411A00D201465241104670475DE0BA
:10026000CA0F00D04942031000D34042534000223D
:100270009C4603098B422DD3030A8B4212D3FC22E6
:10028000890112BA030A8B420CD3890192118B4265
:1002900008D3890192118B4204D389013AD092117B
:1002A00000E08909C3098B4201D3CB01C01A524136
:1002B00083098B4201D38B01C01A524143098B42FF
:1002C00001D34B01C01A524103098B4201D30B01E8
:1002D000C01A5241C3088B4201D3CB00C01A52410D
:1002E00083088B4201D38B00C01A5241D9D24308F4
:1002F0008B4201D34B00C01A5241411A00D2014631
:10030000634652415B10104601D34042002B00D59A
:100310004942704763465B1000D3404201B500205C
:10032000C046C04602BD704770477047754600F032
:1003300025F8AE46050069465346C008C00085460C
:1003400018B020B5FFF724FF60BC00274908B64667
:100350000026C0C5C0C5C0C5C0C5C0C5C0C5C0C5D4
:10036000C0C5403D49008D46704710B50446C046A3
:10037000C0462046FFF7EFFE10BD00000048704762
:100380003800002001491820ABBEFEE7260002001D
:1003900070470000FEB5002002901AA0006800908F
:1003A0001948046A00132040002801D00020FEBD37
:1003B0000120C0042040002801D0144D00E0144D5D
:1003C000012040042040002801D02846EFE7032008
:1003D00080032040800B69460A5C0192E005C00D55
:1003E000861C1F2040022040400A871C019A7A4345
:1003F0001146AA0872431046FFF7E8FE80000290FB
:100400000298D4E70102020400020050008051016A
:10041000001BB70078B504460E46164800906846A3
:1004200000F0A2FA20E02078641C134909884840B3
:1004300011490880002515E00F480078C007C00F5B
:10044000002808D00C4800884010694609884840B8
:100450000949088004E008480088401006490880DF
:10046000681CC5B2082DE7DB3046761E0028DAD1BD
:1004700078BD0000058000003000002010B500BFEE
:1004800006E0592036490860162008608820086078
:10049000334800680128F4D100BF3148C0384068B3
:1004A000032108432E49C03948602E4800680421C2
:1004B00008432C49086000BF2A48C0681021084042
:1004C0000028F9D027480069C008C000C01D254990
:1004D0000861084680690009000188610846006AD1
:1004E000C90108431F4908620846006809210843FA
:1004F0001C49086000BF1B48C06809210840092842
:10050000F9D119481749086200BF1648C06804218C
:1005100008400028F9D013488069F0218843203032
:100520001049886108460069C008C000401C086185
:1005300008460069382188430421084309490861B5
:100540000A4800683921084308490860054840689E
:10055000022108430349486000F02EFA10BD000054
:1005600000010050000200508EC2000000C0005088
:1005700001462E20124AD0601046416000690122D7
:1005800010430F4A106100BF00BF00BFBFF36F8F61
:1005900000BF00BF00BF00BF094800690028FBD1B1
:1005A0000748006840221040002806D00448006830
:1005B0001043034A1060034870470020FCE7000026
:1005C00000C000501000FFFF70B5CC05E40D002CFA
:1005D00002D04C0A631C00E04B0A002226E00446CD
:1005E0002225144EF56035466C600125356100BF4B
:1005F00000BF00BF00BFBFF36F8F00BF00BF00BFD1
:1006000000BF0C4D2D69002DFBD10A4D2D684026F1
:100610003540002D05D0074D2D683543054E35601A
:1006200000E000BFFF30FF300230521C9A42D6D3A8
:1006300070BD000000C00050F8B507460E461546D4
:10064000002419E0A100C81900F0DAF8009068460B
:100650000178A000315468464178A000401C315414
:1006600068468178A000801C31546846C178A0009B
:10067000C01C3154601C84B2E917890F49198910D4
:10068000A142DFDC2846E917890F09188910890083
:10069000691A32D0A100C81900F0B2F800902846BB
:1006A000E917890F091889108900691A012904D0EE
:1006B000022907D003291ED10EE068460178A00068
:1006C000315419E068460178A000315468464178F9
:1006D000A000401C31540FE068460178A00031545E
:1006E00068464178A000401C315468468178A000DB
:1006F000801C315400E000BF00BFF8BDF8B50746CC
:100700000E461546002419E0A000315C68460170D1
:10071000A000401C315C68464170A000801C315C28
:1007200068468170A000C01C315C6846C170A200A0
:10073000D019009900F07EF8601C84B2E917890F87
:1007400049198910A142DFDC2846E917890F0918E9
:1007500089108900691A37D0A100C81900F050F833
:1007600000902846E917890F091889108900691A2D
:10077000012904D0022907D003291ED10EE0A000D0
:10078000305C6946087019E0A000315C6846017071
:10079000A000401C315C684641700FE0A000315C55
:1007A00068460170A000401C315C68464170A000A2
:1007B000801C315C6846817000E000BF00BFA20071
:1007C000D019009900F036F8F8BD0000014600206D
:1007D0000A4AD060104641600120106100BF00BF8E
:1007E00000BFBFF36F8F00BF00BF00BF00BF034853
:1007F00000690028FBD101488068704700C00050A4
:10080000014600200A4AD060104641600120106174
:1008100000BF00BF00BFBFF36F8F00BF00BF00BFAE
:1008200000BF034800690028FBD101488068704779
:1008300000C0005021220A4BDA601A4650609160D5
:1008400001221A6100BF00BF00BFBFF36F8F00BF5E
:1008500000BF00BF00BF024A1269002AFBD17047E7
:1008600000C0005070B504460D4629462046FFF7EB
:10087000ABFE70BDF8B507460C4600250AE0A9009E
:10088000C819FFF7A3FF009004216846FFF7C2FDD7
:10089000681C85B2E117890F09198910A942EEDC9D
:1008A00000988007800F002810D0A9004322520230
:1008B0008818FFF78BFF00902646E017800F8019FD
:1008C00080108000211A6846FFF7A4FD01480088C7
:1008D000F8BD000030000020F8B507461546002698
:1008E00020E0B100C819FFF771FF0446B2002046AE
:1008F000111821220F4BDA601A46516090600122D4
:100900001A6100BF00BF00BF00BFBFF36F8F00BF01
:1009100000BF00BF00BF074A1269002AFBD100BF19
:10092000701C86B2E917890F49198910491CB14218
:10093000D7DCF8BD00C0005037B5044615462A463E
:1009400001A92046FFF778FE3EBD70B504460D466E
:100950001646012189022046FFF736FE3246294617
:100960002046FFF7CBFE70BD30B5014600220B8854
:1009700000200CE0012484401C40002C05D00F24F2
:10098000251A0124AC401443A2B2441CE0B2102842
:10099000F0DB0A8030BD000010B501200003446880
:1009A0000448046001200003FFF7E2FD01480068ED
:1009B000804710BD3400002070B5FFF7EBFC1449F0
:1009C00008601448006945076D0F022D02D10846E2
:1009D000046808E0012D03D10D480068440802E0D6
:1009E000A8000D490C580B4880690007000F461CF1
:1009F00031462046FFF7EAFB0849086008490748E6
:100A000000684A108018FFF7E1FB0649086070BDD6
:100A100008000020000200500C0000200000002010
:100A200040420F00040000207047000070B5002411
:100A30000025FFF723FD042226493F208002FFF70F
:100A40007BFF24480078012840D1224841880120BA
:100A50000003FFF707FF1F484288012109034320D5
:100A60004002FFF739FF1B48418801200003FFF7D0
:100A700001FF04461748418843204002FFF7FAFE71
:100A80000546AC420AD100201249087004223F20DA
:100A90008002FFF75AFFFFF77FFF19E000BF00BF9A
:100AA00000BF00BF00BFBFF34F8F00BF00BF00BF3C
:100AB00009480A49C86000BF00BF00BFBFF34F8F9D
:100AC00000BF00BF00BF00BF00BFFDE7FFF764FF2E
:100AD000002070BD2C0000200400FA0500ED00E0AD
:100AE000000B00000000002038000000040100009E
:100AF000380B0000380000206008000020010000D2
:100B000080F0FA023200000080F0FA02001BB70009
:100B10000000000080F0FA02102700000000000032
:100B200000000000000000000080510100000000F3
:080B30000000000000000000BD
:040000050000016591
:00000001FF
